{
  "_format": "hh-sol-artifact-1",
  "contractName": "Bank",
  "sourceName": "contracts/Bank.sol",
  "abi": [
    {
      "inputs": [],
      "stateMutability": "nonpayable",
      "type": "constructor"
    },
    {
      "anonymous": false,
      "inputs": [
        {
          "indexed": true,
          "internalType": "address",
          "name": "accountAddress",
          "type": "address"
        },
        {
          "indexed": false,
          "internalType": "address",
          "name": "owner",
          "type": "address"
        },
        {
          "indexed": false,
          "internalType": "uint256",
          "name": "amount",
          "type": "uint256"
        },
        {
          "indexed": false,
          "internalType": "uint256",
          "name": "timestamp",
          "type": "uint256"
        }
      ],
      "name": "Deposit",
      "type": "event"
    },
    {
      "anonymous": false,
      "inputs": [
        {
          "indexed": false,
          "internalType": "address",
          "name": "from",
          "type": "address"
        },
        {
          "indexed": false,
          "internalType": "address",
          "name": "reciever",
          "type": "address"
        },
        {
          "indexed": false,
          "internalType": "uint256",
          "name": "amount",
          "type": "uint256"
        },
        {
          "indexed": false,
          "internalType": "string",
          "name": "message",
          "type": "string"
        },
        {
          "indexed": false,
          "internalType": "uint256",
          "name": "timestamp",
          "type": "uint256"
        }
      ],
      "name": "Transfer",
      "type": "event"
    },
    {
      "stateMutability": "nonpayable",
      "type": "fallback"
    },
    {
      "inputs": [
        {
          "internalType": "address payable",
          "name": "receiver",
          "type": "address"
        },
        {
          "internalType": "uint256",
          "name": "amount",
          "type": "uint256"
        },
        {
          "internalType": "string",
          "name": "message",
          "type": "string"
        }
      ],
      "name": "addToBlockchain",
      "outputs": [],
      "stateMutability": "nonpayable",
      "type": "function"
    },
    {
      "inputs": [],
      "name": "allBalancepool",
      "outputs": [
        {
          "internalType": "uint256",
          "name": "",
          "type": "uint256"
        }
      ],
      "stateMutability": "view",
      "type": "function"
    },
    {
      "inputs": [],
      "name": "balance",
      "outputs": [
        {
          "internalType": "uint256",
          "name": "",
          "type": "uint256"
        }
      ],
      "stateMutability": "view",
      "type": "function"
    },
    {
      "inputs": [
        {
          "internalType": "uint256",
          "name": "amount",
          "type": "uint256"
        }
      ],
      "name": "deposit",
      "outputs": [],
      "stateMutability": "payable",
      "type": "function"
    },
    {
      "inputs": [],
      "name": "enroll",
      "outputs": [
        {
          "internalType": "uint256",
          "name": "",
          "type": "uint256"
        }
      ],
      "stateMutability": "nonpayable",
      "type": "function"
    },
    {
      "inputs": [],
      "name": "getAllTransactions",
      "outputs": [
        {
          "components": [
            {
              "internalType": "address",
              "name": "sender",
              "type": "address"
            },
            {
              "internalType": "address",
              "name": "receiver",
              "type": "address"
            },
            {
              "internalType": "uint256",
              "name": "amount",
              "type": "uint256"
            },
            {
              "internalType": "string",
              "name": "message",
              "type": "string"
            },
            {
              "internalType": "uint256",
              "name": "timestamp",
              "type": "uint256"
            }
          ],
          "internalType": "struct Bank.TransferInterface[]",
          "name": "",
          "type": "tuple[]"
        }
      ],
      "stateMutability": "view",
      "type": "function"
    },
    {
      "inputs": [],
      "name": "getTransactionCount",
      "outputs": [
        {
          "internalType": "uint256",
          "name": "",
          "type": "uint256"
        }
      ],
      "stateMutability": "view",
      "type": "function"
    },
    {
      "inputs": [],
      "name": "owner",
      "outputs": [
        {
          "internalType": "address",
          "name": "",
          "type": "address"
        }
      ],
      "stateMutability": "view",
      "type": "function"
    },
    {
      "inputs": [
        {
          "internalType": "uint256",
          "name": "amount",
          "type": "uint256"
        },
        {
          "internalType": "string",
          "name": "message",
          "type": "string"
        }
      ],
      "name": "withdraw",
      "outputs": [
        {
          "internalType": "uint256",
          "name": "remainingBal",
          "type": "uint256"
        }
      ],
      "stateMutability": "payable",
      "type": "function"
    }
  ],
  "bytecode": "0x608060405234801561001057600080fd5b50336000806101000a81548173ffffffffffffffffffffffffffffffffffffffff021916908373ffffffffffffffffffffffffffffffffffffffff16021790555060006001819055506000600281905550611250806100706000396000f3fe60806040526004361061008a5760003560e01c8063b69ef8a811610059578063b69ef8a814610149578063b6b55f2514610174578063dc048cf214610190578063e65f2a7e146101c0578063eb12da4a146101eb5761008b565b806327506f531461009d5780632e7700f0146100c85780636803ce10146100f35780638da5cb5b1461011e5761008b565b5b34801561009757600080fd5b50600080fd5b3480156100a957600080fd5b506100b2610214565b6040516100bf9190610e10565b60405180910390f35b3480156100d457600080fd5b506100dd6103c5565b6040516100ea9190610e52565b60405180910390f35b3480156100ff57600080fd5b506101086103cf565b6040516101159190610e52565b60405180910390f35b34801561012a57600080fd5b506101336103d9565b6040516101409190610d0a565b60405180910390f35b34801561015557600080fd5b5061015e6103fd565b60405161016b9190610e52565b60405180910390f35b61018e60048036038101906101899190610aae565b610449565b005b6101aa60048036038101906101a59190610ad7565b61054b565b6040516101b79190610e52565b60405180910390f35b3480156101cc57600080fd5b506101d561073a565b6040516101e29190610e52565b60405180910390f35b3480156101f757600080fd5b50610212600480360381019061020d9190610a47565b610776565b005b60606005805480602002602001604051908101604052809291908181526020016000905b828210156103bc57838290600052602060002090600502016040518060a00160405290816000820160009054906101000a900473ffffffffffffffffffffffffffffffffffffffff1673ffffffffffffffffffffffffffffffffffffffff1673ffffffffffffffffffffffffffffffffffffffff1681526020016001820160009054906101000a900473ffffffffffffffffffffffffffffffffffffffff1673ffffffffffffffffffffffffffffffffffffffff1673ffffffffffffffffffffffffffffffffffffffff1681526020016002820154815260200160038201805461032190611079565b80601f016020809104026020016040519081016040528092919081815260200182805461034d90611079565b801561039a5780601f1061036f5761010080835404028352916020019161039a565b820191906000526020600020905b81548152906001019060200180831161037d57829003601f168201915b5050505050815260200160048201548152505081526020019060010190610238565b50505050905090565b6000600154905090565b6000600354905090565b60008054906101000a900473ffffffffffffffffffffffffffffffffffffffff1681565b600080339050600460008273ffffffffffffffffffffffffffffffffffffffff1673ffffffffffffffffffffffffffffffffffffffff1681526020019081526020016000205491505090565b600033905081600460008373ffffffffffffffffffffffffffffffffffffffff1673ffffffffffffffffffffffffffffffffffffffff168152602001908152602001600020600082825461049d9190610f29565b9250508190555081600360008282546104b69190610f29565b925050819055508073ffffffffffffffffffffffffffffffffffffffff167fdcbc1c05240f31ff3ad067ef1ee35ce4997762752e3a095284754544f4c709d760008054906101000a900473ffffffffffffffffffffffffffffffffffffffff16844260405161052793929190610dd9565b60405180910390a260016000815480929190610542906110dc565b91905055505050565b60008033905083600460008373ffffffffffffffffffffffffffffffffffffffff1673ffffffffffffffffffffffffffffffffffffffff1681526020019081526020016000205410156105d3576040517f08c379a00000000000000000000000000000000000000000000000000000000081526004016105ca90610e32565b60405180910390fd5b83600460008373ffffffffffffffffffffffffffffffffffffffff1673ffffffffffffffffffffffffffffffffffffffff16815260200190815260200160002060008282546106229190610f7f565b92505081905550836003600082825461063b9190610f7f565b925050819055507fc4b32d7ff75a51e487f3cbb5d3202f2efecca1f4c2b987e0039c1d3220b48a8360008054906101000a900473ffffffffffffffffffffffffffffffffffffffff1682866040518060400160405280600881526020017f5769746864726177000000000000000000000000000000000000000000000000815250965086426040516106d1959493929190610d7f565b60405180910390a1600160008154809291906106ec906110dc565b9190505550600460008273ffffffffffffffffffffffffffffffffffffffff1673ffffffffffffffffffffffffffffffffffffffff1681526020019081526020016000205491505092915050565b60008033905060026000815480929190610753906110dc565b91905055508073ffffffffffffffffffffffffffffffffffffffff163191505090565b60018060008282546107889190610f29565b9250508190555060056040518060a001604052803373ffffffffffffffffffffffffffffffffffffffff1681526020018573ffffffffffffffffffffffffffffffffffffffff16815260200184815260200183815260200142815250908060018154018082558091505060019003906000526020600020906005020160009091909190915060008201518160000160006101000a81548173ffffffffffffffffffffffffffffffffffffffff021916908373ffffffffffffffffffffffffffffffffffffffff16021790555060208201518160010160006101000a81548173ffffffffffffffffffffffffffffffffffffffff021916908373ffffffffffffffffffffffffffffffffffffffff1602179055506040820151816002015560608201518160030190805190602001906108c1929190610912565b506080820151816004015550507fc4b32d7ff75a51e487f3cbb5d3202f2efecca1f4c2b987e0039c1d3220b48a833384848442604051610905959493929190610d25565b60405180910390a1505050565b82805461091e90611079565b90600052602060002090601f0160209004810192826109405760008555610987565b82601f1061095957805160ff1916838001178555610987565b82800160010185558215610987579182015b8281111561098657825182559160200191906001019061096b565b5b5090506109949190610998565b5090565b5b808211156109b1576000816000905550600101610999565b5090565b60006109c86109c384610e92565b610e6d565b9050828152602081018484840111156109e057600080fd5b6109eb848285611037565b509392505050565b600081359050610a02816111ec565b92915050565b600082601f830112610a1957600080fd5b8135610a298482602086016109b5565b91505092915050565b600081359050610a4181611203565b92915050565b600080600060608486031215610a5c57600080fd5b6000610a6a868287016109f3565b9350506020610a7b86828701610a32565b925050604084013567ffffffffffffffff811115610a9857600080fd5b610aa486828701610a08565b9150509250925092565b600060208284031215610ac057600080fd5b6000610ace84828501610a32565b91505092915050565b60008060408385031215610aea57600080fd5b6000610af885828601610a32565b925050602083013567ffffffffffffffff811115610b1557600080fd5b610b2185828601610a08565b9150509250929050565b6000610b378383610c76565b905092915050565b610b4881611001565b82525050565b610b5781610fb3565b82525050565b610b6681610fb3565b82525050565b6000610b7782610ed3565b610b818185610ef6565b935083602082028501610b9385610ec3565b8060005b85811015610bcf5784840389528151610bb08582610b2b565b9450610bbb83610ee9565b925060208a01995050600181019050610b97565b50829750879550505050505092915050565b6000610bec82610ede565b610bf68185610f07565b9350610c06818560208601611046565b610c0f816111b2565b840191505092915050565b6000610c2582610ede565b610c2f8185610f18565b9350610c3f818560208601611046565b610c48816111b2565b840191505092915050565b6000610c60601683610f18565b9150610c6b826111c3565b602082019050919050565b600060a083016000830151610c8e6000860182610b4e565b506020830151610ca16020860182610b4e565b506040830151610cb46040860182610cec565b5060608301518482036060860152610ccc8282610be1565b9150506080830151610ce16080860182610cec565b508091505092915050565b610cf581610ff7565b82525050565b610d0481610ff7565b82525050565b6000602082019050610d1f6000830184610b5d565b92915050565b600060a082019050610d3a6000830188610b5d565b610d476020830187610b3f565b610d546040830186610cfb565b8181036060830152610d668185610c1a565b9050610d756080830184610cfb565b9695505050505050565b600060a082019050610d946000830188610b5d565b610da16020830187610b5d565b610dae6040830186610cfb565b8181036060830152610dc08185610c1a565b9050610dcf6080830184610cfb565b9695505050505050565b6000606082019050610dee6000830186610b5d565b610dfb6020830185610cfb565b610e086040830184610cfb565b949350505050565b60006020820190508181036000830152610e2a8184610b6c565b905092915050565b60006020820190508181036000830152610e4b81610c53565b9050919050565b6000602082019050610e676000830184610cfb565b92915050565b6000610e77610e88565b9050610e8382826110ab565b919050565b6000604051905090565b600067ffffffffffffffff821115610ead57610eac611183565b5b610eb6826111b2565b9050602081019050919050565b6000819050602082019050919050565b600081519050919050565b600081519050919050565b6000602082019050919050565b600082825260208201905092915050565b600082825260208201905092915050565b600082825260208201905092915050565b6000610f3482610ff7565b9150610f3f83610ff7565b9250827fffffffffffffffffffffffffffffffffffffffffffffffffffffffffffffffff03821115610f7457610f73611125565b5b828201905092915050565b6000610f8a82610ff7565b9150610f9583610ff7565b925082821015610fa857610fa7611125565b5b828203905092915050565b6000610fbe82610fd7565b9050919050565b6000610fd082610fd7565b9050919050565b600073ffffffffffffffffffffffffffffffffffffffff82169050919050565b6000819050919050565b600061100c82611013565b9050919050565b600061101e82611025565b9050919050565b600061103082610fd7565b9050919050565b82818337600083830152505050565b60005b83811015611064578082015181840152602081019050611049565b83811115611073576000848401525b50505050565b6000600282049050600182168061109157607f821691505b602082108114156110a5576110a4611154565b5b50919050565b6110b4826111b2565b810181811067ffffffffffffffff821117156110d3576110d2611183565b5b80604052505050565b60006110e782610ff7565b91507fffffffffffffffffffffffffffffffffffffffffffffffffffffffffffffffff82141561111a57611119611125565b5b600182019050919050565b7f4e487b7100000000000000000000000000000000000000000000000000000000600052601160045260246000fd5b7f4e487b7100000000000000000000000000000000000000000000000000000000600052602260045260246000fd5b7f4e487b7100000000000000000000000000000000000000000000000000000000600052604160045260246000fd5b6000601f19601f8301169050919050565b7f42616c616e636520697320617070726f70726961746500000000000000000000600082015250565b6111f581610fc5565b811461120057600080fd5b50565b61120c81610ff7565b811461121757600080fd5b5056fea2646970667358221220cbcc6f5bd337dc1005d7d1872aac1a8f6a57590f62db01e58c13a40797b91e3d64736f6c63430008040033",
  "linkReferences": {},
  "deployedLinkReferences": {}
}