{
  "_format": "hh-sol-artifact-1",
  "contractName": "Bank",
  "sourceName": "contracts/Bank.sol",
  "abi": [
    {
      "inputs": [],
      "stateMutability": "nonpayable",
      "type": "constructor"
    },
    {
      "anonymous": false,
      "inputs": [
        {
          "indexed": true,
          "internalType": "address",
          "name": "accountAddress",
          "type": "address"
        },
        {
          "indexed": false,
          "internalType": "address",
          "name": "owner",
          "type": "address"
        },
        {
          "indexed": false,
          "internalType": "uint256",
          "name": "amount",
          "type": "uint256"
        },
        {
          "indexed": false,
          "internalType": "uint256",
          "name": "timestamp",
          "type": "uint256"
        }
      ],
      "name": "Deposit",
      "type": "event"
    },
    {
      "anonymous": false,
      "inputs": [
        {
          "indexed": false,
          "internalType": "address",
          "name": "from",
          "type": "address"
        },
        {
          "indexed": false,
          "internalType": "address",
          "name": "reciever",
          "type": "address"
        },
        {
          "indexed": false,
          "internalType": "uint256",
          "name": "amount",
          "type": "uint256"
        },
        {
          "indexed": false,
          "internalType": "string",
          "name": "message",
          "type": "string"
        },
        {
          "indexed": false,
          "internalType": "uint256",
          "name": "timestamp",
          "type": "uint256"
        }
      ],
      "name": "Transfer",
      "type": "event"
    },
    {
      "stateMutability": "nonpayable",
      "type": "fallback"
    },
    {
      "inputs": [
        {
          "internalType": "address payable",
          "name": "receiver",
          "type": "address"
        },
        {
          "internalType": "uint256",
          "name": "amount",
          "type": "uint256"
        },
        {
          "internalType": "string",
          "name": "message",
          "type": "string"
        }
      ],
      "name": "addToBlockchain",
      "outputs": [],
      "stateMutability": "nonpayable",
      "type": "function"
    },
    {
      "inputs": [],
      "name": "balance",
      "outputs": [
        {
          "internalType": "uint256",
          "name": "",
          "type": "uint256"
        }
      ],
      "stateMutability": "view",
      "type": "function"
    },
    {
      "inputs": [
        {
          "internalType": "uint256",
          "name": "amount",
          "type": "uint256"
        }
      ],
      "name": "deposit",
      "outputs": [],
      "stateMutability": "payable",
      "type": "function"
    },
    {
      "inputs": [],
      "name": "enroll",
      "outputs": [
        {
          "internalType": "uint256",
          "name": "",
          "type": "uint256"
        }
      ],
      "stateMutability": "nonpayable",
      "type": "function"
    },
    {
      "inputs": [],
      "name": "getAllTransactions",
      "outputs": [
        {
          "components": [
            {
              "internalType": "address",
              "name": "sender",
              "type": "address"
            },
            {
              "internalType": "address",
              "name": "receiver",
              "type": "address"
            },
            {
              "internalType": "uint256",
              "name": "amount",
              "type": "uint256"
            },
            {
              "internalType": "string",
              "name": "message",
              "type": "string"
            },
            {
              "internalType": "uint256",
              "name": "timestamp",
              "type": "uint256"
            }
          ],
          "internalType": "struct Bank.TransferInterface[]",
          "name": "",
          "type": "tuple[]"
        }
      ],
      "stateMutability": "view",
      "type": "function"
    },
    {
      "inputs": [],
      "name": "getTransactionCount",
      "outputs": [
        {
          "internalType": "uint256",
          "name": "",
          "type": "uint256"
        }
      ],
      "stateMutability": "view",
      "type": "function"
    },
    {
      "inputs": [],
      "name": "owner",
      "outputs": [
        {
          "internalType": "address",
          "name": "",
          "type": "address"
        }
      ],
      "stateMutability": "view",
      "type": "function"
    },
    {
      "inputs": [
        {
          "internalType": "uint256",
          "name": "amount",
          "type": "uint256"
        },
        {
          "internalType": "string",
          "name": "message",
          "type": "string"
        }
      ],
      "name": "withdraw",
      "outputs": [
        {
          "internalType": "uint256",
          "name": "remainingBal",
          "type": "uint256"
        }
      ],
      "stateMutability": "payable",
      "type": "function"
    }
  ],
  "bytecode": "0x608060405234801561001057600080fd5b50336000806101000a81548173ffffffffffffffffffffffffffffffffffffffff021916908373ffffffffffffffffffffffffffffffffffffffff160217905550600060018190555060006002819055506111de806100706000396000f3fe60806040526004361061007f5760003560e01c8063b6b55f251161004e578063b6b55f251461013e578063dc048cf21461015a578063e65f2a7e1461018a578063eb12da4a146101b557610080565b806327506f53146100925780632e7700f0146100bd5780638da5cb5b146100e8578063b69ef8a81461011357610080565b5b34801561008c57600080fd5b50600080fd5b34801561009e57600080fd5b506100a76101de565b6040516100b49190610d9e565b60405180910390f35b3480156100c957600080fd5b506100d261038f565b6040516100df9190610de0565b60405180910390f35b3480156100f457600080fd5b506100fd610399565b60405161010a9190610c98565b60405180910390f35b34801561011f57600080fd5b506101286103bd565b6040516101359190610de0565b60405180910390f35b61015860048036038101906101539190610a3c565b610409565b005b610174600480360381019061016f9190610a65565b6104f2565b6040516101819190610de0565b60405180910390f35b34801561019657600080fd5b5061019f6106c8565b6040516101ac9190610de0565b60405180910390f35b3480156101c157600080fd5b506101dc60048036038101906101d791906109d5565b610704565b005b60606004805480602002602001604051908101604052809291908181526020016000905b8282101561038657838290600052602060002090600502016040518060a00160405290816000820160009054906101000a900473ffffffffffffffffffffffffffffffffffffffff1673ffffffffffffffffffffffffffffffffffffffff1673ffffffffffffffffffffffffffffffffffffffff1681526020016001820160009054906101000a900473ffffffffffffffffffffffffffffffffffffffff1673ffffffffffffffffffffffffffffffffffffffff1673ffffffffffffffffffffffffffffffffffffffff168152602001600282015481526020016003820180546102eb90611007565b80601f016020809104026020016040519081016040528092919081815260200182805461031790611007565b80156103645780601f1061033957610100808354040283529160200191610364565b820191906000526020600020905b81548152906001019060200180831161034757829003601f168201915b5050505050815260200160048201548152505081526020019060010190610202565b50505050905090565b6000600154905090565b60008054906101000a900473ffffffffffffffffffffffffffffffffffffffff1681565b600080339050600360008273ffffffffffffffffffffffffffffffffffffffff1673ffffffffffffffffffffffffffffffffffffffff1681526020019081526020016000205491505090565b600033905081600360008373ffffffffffffffffffffffffffffffffffffffff1673ffffffffffffffffffffffffffffffffffffffff168152602001908152602001600020600082825461045d9190610eb7565b925050819055508073ffffffffffffffffffffffffffffffffffffffff167fdcbc1c05240f31ff3ad067ef1ee35ce4997762752e3a095284754544f4c709d760008054906101000a900473ffffffffffffffffffffffffffffffffffffffff1684426040516104ce93929190610d67565b60405180910390a2600160008154809291906104e99061106a565b91905055505050565b60008033905083600360008373ffffffffffffffffffffffffffffffffffffffff1673ffffffffffffffffffffffffffffffffffffffff16815260200190815260200160002054101561057a576040517f08c379a000000000000000000000000000000000000000000000000000000000815260040161057190610dc0565b60405180910390fd5b83600360008373ffffffffffffffffffffffffffffffffffffffff1673ffffffffffffffffffffffffffffffffffffffff16815260200190815260200160002060008282546105c99190610f0d565b925050819055507fc4b32d7ff75a51e487f3cbb5d3202f2efecca1f4c2b987e0039c1d3220b48a8360008054906101000a900473ffffffffffffffffffffffffffffffffffffffff1682866040518060400160405280600881526020017f57697468647261770000000000000000000000000000000000000000000000008152509650864260405161065f959493929190610d0d565b60405180910390a16001600081548092919061067a9061106a565b9190505550600360008273ffffffffffffffffffffffffffffffffffffffff1673ffffffffffffffffffffffffffffffffffffffff1681526020019081526020016000205491505092915050565b600080339050600260008154809291906106e19061106a565b91905055508073ffffffffffffffffffffffffffffffffffffffff163191505090565b60018060008282546107169190610eb7565b9250508190555060046040518060a001604052803373ffffffffffffffffffffffffffffffffffffffff1681526020018573ffffffffffffffffffffffffffffffffffffffff16815260200184815260200183815260200142815250908060018154018082558091505060019003906000526020600020906005020160009091909190915060008201518160000160006101000a81548173ffffffffffffffffffffffffffffffffffffffff021916908373ffffffffffffffffffffffffffffffffffffffff16021790555060208201518160010160006101000a81548173ffffffffffffffffffffffffffffffffffffffff021916908373ffffffffffffffffffffffffffffffffffffffff16021790555060408201518160020155606082015181600301908051906020019061084f9291906108a0565b506080820151816004015550507fc4b32d7ff75a51e487f3cbb5d3202f2efecca1f4c2b987e0039c1d3220b48a833384848442604051610893959493929190610cb3565b60405180910390a1505050565b8280546108ac90611007565b90600052602060002090601f0160209004810192826108ce5760008555610915565b82601f106108e757805160ff1916838001178555610915565b82800160010185558215610915579182015b828111156109145782518255916020019190600101906108f9565b5b5090506109229190610926565b5090565b5b8082111561093f576000816000905550600101610927565b5090565b600061095661095184610e20565b610dfb565b90508281526020810184848401111561096e57600080fd5b610979848285610fc5565b509392505050565b6000813590506109908161117a565b92915050565b600082601f8301126109a757600080fd5b81356109b7848260208601610943565b91505092915050565b6000813590506109cf81611191565b92915050565b6000806000606084860312156109ea57600080fd5b60006109f886828701610981565b9350506020610a09868287016109c0565b925050604084013567ffffffffffffffff811115610a2657600080fd5b610a3286828701610996565b9150509250925092565b600060208284031215610a4e57600080fd5b6000610a5c848285016109c0565b91505092915050565b60008060408385031215610a7857600080fd5b6000610a86858286016109c0565b925050602083013567ffffffffffffffff811115610aa357600080fd5b610aaf85828601610996565b9150509250929050565b6000610ac58383610c04565b905092915050565b610ad681610f8f565b82525050565b610ae581610f41565b82525050565b610af481610f41565b82525050565b6000610b0582610e61565b610b0f8185610e84565b935083602082028501610b2185610e51565b8060005b85811015610b5d5784840389528151610b3e8582610ab9565b9450610b4983610e77565b925060208a01995050600181019050610b25565b50829750879550505050505092915050565b6000610b7a82610e6c565b610b848185610e95565b9350610b94818560208601610fd4565b610b9d81611140565b840191505092915050565b6000610bb382610e6c565b610bbd8185610ea6565b9350610bcd818560208601610fd4565b610bd681611140565b840191505092915050565b6000610bee601683610ea6565b9150610bf982611151565b602082019050919050565b600060a083016000830151610c1c6000860182610adc565b506020830151610c2f6020860182610adc565b506040830151610c426040860182610c7a565b5060608301518482036060860152610c5a8282610b6f565b9150506080830151610c6f6080860182610c7a565b508091505092915050565b610c8381610f85565b82525050565b610c9281610f85565b82525050565b6000602082019050610cad6000830184610aeb565b92915050565b600060a082019050610cc86000830188610aeb565b610cd56020830187610acd565b610ce26040830186610c89565b8181036060830152610cf48185610ba8565b9050610d036080830184610c89565b9695505050505050565b600060a082019050610d226000830188610aeb565b610d2f6020830187610aeb565b610d3c6040830186610c89565b8181036060830152610d4e8185610ba8565b9050610d5d6080830184610c89565b9695505050505050565b6000606082019050610d7c6000830186610aeb565b610d896020830185610c89565b610d966040830184610c89565b949350505050565b60006020820190508181036000830152610db88184610afa565b905092915050565b60006020820190508181036000830152610dd981610be1565b9050919050565b6000602082019050610df56000830184610c89565b92915050565b6000610e05610e16565b9050610e118282611039565b919050565b6000604051905090565b600067ffffffffffffffff821115610e3b57610e3a611111565b5b610e4482611140565b9050602081019050919050565b6000819050602082019050919050565b600081519050919050565b600081519050919050565b6000602082019050919050565b600082825260208201905092915050565b600082825260208201905092915050565b600082825260208201905092915050565b6000610ec282610f85565b9150610ecd83610f85565b9250827fffffffffffffffffffffffffffffffffffffffffffffffffffffffffffffffff03821115610f0257610f016110b3565b5b828201905092915050565b6000610f1882610f85565b9150610f2383610f85565b925082821015610f3657610f356110b3565b5b828203905092915050565b6000610f4c82610f65565b9050919050565b6000610f5e82610f65565b9050919050565b600073ffffffffffffffffffffffffffffffffffffffff82169050919050565b6000819050919050565b6000610f9a82610fa1565b9050919050565b6000610fac82610fb3565b9050919050565b6000610fbe82610f65565b9050919050565b82818337600083830152505050565b60005b83811015610ff2578082015181840152602081019050610fd7565b83811115611001576000848401525b50505050565b6000600282049050600182168061101f57607f821691505b60208210811415611033576110326110e2565b5b50919050565b61104282611140565b810181811067ffffffffffffffff8211171561106157611060611111565b5b80604052505050565b600061107582610f85565b91507fffffffffffffffffffffffffffffffffffffffffffffffffffffffffffffffff8214156110a8576110a76110b3565b5b600182019050919050565b7f4e487b7100000000000000000000000000000000000000000000000000000000600052601160045260246000fd5b7f4e487b7100000000000000000000000000000000000000000000000000000000600052602260045260246000fd5b7f4e487b7100000000000000000000000000000000000000000000000000000000600052604160045260246000fd5b6000601f19601f8301169050919050565b7f42616c616e636520697320617070726f70726961746500000000000000000000600082015250565b61118381610f53565b811461118e57600080fd5b50565b61119a81610f85565b81146111a557600080fd5b5056fea2646970667358221220c1ed84d43bdc62a300680b6fd9e3c33c2327af88fd1f3dca1eb53fa8571134c364736f6c63430008040033",
  "linkReferences": {},
  "deployedLinkReferences": {}
}